{
  "abi": [
    {
      "inputs": [
        {
          "internalType": "address",
          "name": "_tokenaddr",
          "type": "address"
        },
        {
          "internalType": "address",
          "name": "_hacienda",
          "type": "address"
        },
        {
          "internalType": "uint256",
          "name": "_porcentaje",
          "type": "uint256"
        }
      ],
      "stateMutability": "nonpayable",
      "type": "constructor"
    },
    {
      "anonymous": false,
      "inputs": [
        {
          "indexed": false,
          "internalType": "address",
          "name": "dir",
          "type": "address"
        },
        {
          "indexed": false,
          "internalType": "uint256",
          "name": "importe",
          "type": "uint256"
        }
      ],
      "name": "Cobrado",
      "type": "event"
    },
    {
      "anonymous": false,
      "inputs": [
        {
          "indexed": false,
          "internalType": "string",
          "name": "",
          "type": "string"
        },
        {
          "indexed": false,
          "internalType": "address",
          "name": "",
          "type": "address"
        },
        {
          "indexed": false,
          "internalType": "address",
          "name": "",
          "type": "address"
        }
      ],
      "name": "Debug",
      "type": "event"
    },
    {
      "anonymous": false,
      "inputs": [
        {
          "indexed": false,
          "internalType": "address",
          "name": "orig",
          "type": "address"
        },
        {
          "indexed": false,
          "internalType": "address",
          "name": "dest",
          "type": "address"
        },
        {
          "indexed": false,
          "internalType": "uint256",
          "name": "bruto",
          "type": "uint256"
        },
        {
          "indexed": false,
          "internalType": "uint256",
          "name": "neto",
          "type": "uint256"
        },
        {
          "indexed": false,
          "internalType": "uint256",
          "name": "impuestos",
          "type": "uint256"
        }
      ],
      "name": "Pagado",
      "type": "event"
    },
    {
      "inputs": [
        {
          "internalType": "uint256",
          "name": "bruto",
          "type": "uint256"
        }
      ],
      "name": "calculaImpuesto",
      "outputs": [
        {
          "internalType": "uint256",
          "name": "",
          "type": "uint256"
        }
      ],
      "stateMutability": "nonpayable",
      "type": "function"
    },
    {
      "inputs": [
        {
          "internalType": "address",
          "name": "destino",
          "type": "address"
        },
        {
          "internalType": "uint256",
          "name": "cantidad",
          "type": "uint256"
        }
      ],
      "name": "enviaPago",
      "outputs": [],
      "stateMutability": "nonpayable",
      "type": "function"
    },
    {
      "inputs": [],
      "name": "recibePago",
      "outputs": [
        {
          "internalType": "bool",
          "name": "",
          "type": "bool"
        }
      ],
      "stateMutability": "nonpayable",
      "type": "function"
    }
  ],
  "bytecode": "608060405234801561001057600080fd5b506040516104b33803806104b383398101604081905261002f916100c2565b6000811180156100515750826001600160a01b0316826001600160a01b031614155b801561006557506001600160a01b03821615155b61006e57600080fd5b600080546001600160a01b039485166001600160a01b03199182161790915560018054939094169216919091179091556002556100fd565b80516001600160a01b03811681146100bd57600080fd5b919050565b6000806000606084860312156100d6578283fd5b6100df846100a6565b92506100ed602085016100a6565b9150604084015190509250925092565b6103a78061010c6000396000f3fe608060405234801561001057600080fd5b50600436106100415760003560e01c806358a0425014610046578063a17d5beb14610063578063f0c2679f14610078575b600080fd5b61004e61009a565b60405190151581526020015b60405180910390f35b6100766100713660046102b7565b610185565b005b61008c610086366004610314565b50600090565b60405190815260200161005a565b60003332146100a857600080fd5b326000818152600360205260408082208054908390558254915163a9059cbb60e01b8152600481019490945260248401819052926001600160a01b039091169063a9059cbb90604401602060405180830381600087803b15801561010b57600080fd5b505af115801561011f573d6000803e3d6000fd5b505050506040513d601f19601f8201168201806040525081019061014391906102ed565b60408051328152602081018590529192507f9b77bca72ac9a0e4a8a5d4644dee473c71cb3fee8c9486c3541f22d52147c4aa910160405180910390a192915050565b60008111801561019d57506001600160a01b03821615155b6101a657600080fd5b336000806000546040516323b872dd60e01b81526001600160a01b038581166004830152306024830152604482018790529293509116906323b872dd90606401602060405180830381600087803b15801561020057600080fd5b505af1158015610214573d6000803e3d6000fd5b505050506040513d601f19601f8201168201806040525081019061023891906102ed565b61024157600080fd5b60008061024e8286610344565b6001546001600160a01b031660009081526003602052604081208054929350849290919061027d90849061032c565b90915550506001600160a01b038616600090815260036020526040812080548392906102aa90849061032c565b9091555050505050505050565b600080604083850312156102c9578182fd5b82356001600160a01b03811681146102df578283fd5b946020939093013593505050565b6000602082840312156102fe578081fd5b8151801515811461030d578182fd5b9392505050565b600060208284031215610325578081fd5b5035919050565b6000821982111561033f5761033f61035b565b500190565b6000828210156103565761035661035b565b500390565b634e487b7160e01b600052601160045260246000fdfea26469706673582212207ba042b5246f027b06f334aed763eb6509227a50ebc23c6d418d2da23a470a2164736f6c63430008040033",
  "bytecodeSha1": "9c0cb71409f16f8a256ad89e3178e32fb1322d76",
  "compiler": {
    "evm_version": "istanbul",
    "optimizer": {
      "enabled": true,
      "runs": 200
    },
    "version": "0.8.4+commit.c7e474f2"
  },
  "contractName": "Pagafactura",
  "language": "Solidity",
  "natspec": {
    "kind": "dev",
    "methods": {},
    "version": 1
  },
  "opcodes": "PUSH1 0x80 PUSH1 0x40 MSTORE CALLVALUE DUP1 ISZERO PUSH2 0x10 JUMPI PUSH1 0x0 DUP1 REVERT JUMPDEST POP PUSH1 0x4 CALLDATASIZE LT PUSH2 0x41 JUMPI PUSH1 0x0 CALLDATALOAD PUSH1 0xE0 SHR DUP1 PUSH4 0x58A04250 EQ PUSH2 0x46 JUMPI DUP1 PUSH4 0xA17D5BEB EQ PUSH2 0x63 JUMPI DUP1 PUSH4 0xF0C2679F EQ PUSH2 0x78 JUMPI JUMPDEST PUSH1 0x0 DUP1 REVERT JUMPDEST PUSH2 0x4E PUSH2 0x9A JUMP JUMPDEST PUSH1 0x40 MLOAD SWAP1 ISZERO ISZERO DUP2 MSTORE PUSH1 0x20 ADD JUMPDEST PUSH1 0x40 MLOAD DUP1 SWAP2 SUB SWAP1 RETURN JUMPDEST PUSH2 0x76 PUSH2 0x71 CALLDATASIZE PUSH1 0x4 PUSH2 0x2B7 JUMP JUMPDEST PUSH2 0x185 JUMP JUMPDEST STOP JUMPDEST PUSH2 0x8C PUSH2 0x86 CALLDATASIZE PUSH1 0x4 PUSH2 0x314 JUMP JUMPDEST POP PUSH1 0x0 SWAP1 JUMP JUMPDEST PUSH1 0x40 MLOAD SWAP1 DUP2 MSTORE PUSH1 0x20 ADD PUSH2 0x5A JUMP JUMPDEST PUSH1 0x0 CALLER ORIGIN EQ PUSH2 0xA8 JUMPI PUSH1 0x0 DUP1 REVERT JUMPDEST ORIGIN PUSH1 0x0 DUP2 DUP2 MSTORE PUSH1 0x3 PUSH1 0x20 MSTORE PUSH1 0x40 DUP1 DUP3 KECCAK256 DUP1 SLOAD SWAP1 DUP4 SWAP1 SSTORE DUP3 SLOAD SWAP2 MLOAD PUSH4 0xA9059CBB PUSH1 0xE0 SHL DUP2 MSTORE PUSH1 0x4 DUP2 ADD SWAP5 SWAP1 SWAP5 MSTORE PUSH1 0x24 DUP5 ADD DUP2 SWAP1 MSTORE SWAP3 PUSH1 0x1 PUSH1 0x1 PUSH1 0xA0 SHL SUB SWAP1 SWAP2 AND SWAP1 PUSH4 0xA9059CBB SWAP1 PUSH1 0x44 ADD PUSH1 0x20 PUSH1 0x40 MLOAD DUP1 DUP4 SUB DUP2 PUSH1 0x0 DUP8 DUP1 EXTCODESIZE ISZERO DUP1 ISZERO PUSH2 0x10B JUMPI PUSH1 0x0 DUP1 REVERT JUMPDEST POP GAS CALL ISZERO DUP1 ISZERO PUSH2 0x11F JUMPI RETURNDATASIZE PUSH1 0x0 DUP1 RETURNDATACOPY RETURNDATASIZE PUSH1 0x0 REVERT JUMPDEST POP POP POP POP PUSH1 0x40 MLOAD RETURNDATASIZE PUSH1 0x1F NOT PUSH1 0x1F DUP3 ADD AND DUP3 ADD DUP1 PUSH1 0x40 MSTORE POP DUP2 ADD SWAP1 PUSH2 0x143 SWAP2 SWAP1 PUSH2 0x2ED JUMP JUMPDEST PUSH1 0x40 DUP1 MLOAD ORIGIN DUP2 MSTORE PUSH1 0x20 DUP2 ADD DUP6 SWAP1 MSTORE SWAP2 SWAP3 POP PUSH32 0x9B77BCA72AC9A0E4A8A5D4644DEE473C71CB3FEE8C9486C3541F22D52147C4AA SWAP2 ADD PUSH1 0x40 MLOAD DUP1 SWAP2 SUB SWAP1 LOG1 SWAP3 SWAP2 POP POP JUMP JUMPDEST PUSH1 0x0 DUP2 GT DUP1 ISZERO PUSH2 0x19D JUMPI POP PUSH1 0x1 PUSH1 0x1 PUSH1 0xA0 SHL SUB DUP3 AND ISZERO ISZERO JUMPDEST PUSH2 0x1A6 JUMPI PUSH1 0x0 DUP1 REVERT JUMPDEST CALLER PUSH1 0x0 DUP1 PUSH1 0x0 SLOAD PUSH1 0x40 MLOAD PUSH4 0x23B872DD PUSH1 0xE0 SHL DUP2 MSTORE PUSH1 0x1 PUSH1 0x1 PUSH1 0xA0 SHL SUB DUP6 DUP2 AND PUSH1 0x4 DUP4 ADD MSTORE ADDRESS PUSH1 0x24 DUP4 ADD MSTORE PUSH1 0x44 DUP3 ADD DUP8 SWAP1 MSTORE SWAP3 SWAP4 POP SWAP2 AND SWAP1 PUSH4 0x23B872DD SWAP1 PUSH1 0x64 ADD PUSH1 0x20 PUSH1 0x40 MLOAD DUP1 DUP4 SUB DUP2 PUSH1 0x0 DUP8 DUP1 EXTCODESIZE ISZERO DUP1 ISZERO PUSH2 0x200 JUMPI PUSH1 0x0 DUP1 REVERT JUMPDEST POP GAS CALL ISZERO DUP1 ISZERO PUSH2 0x214 JUMPI RETURNDATASIZE PUSH1 0x0 DUP1 RETURNDATACOPY RETURNDATASIZE PUSH1 0x0 REVERT JUMPDEST POP POP POP POP PUSH1 0x40 MLOAD RETURNDATASIZE PUSH1 0x1F NOT PUSH1 0x1F DUP3 ADD AND DUP3 ADD DUP1 PUSH1 0x40 MSTORE POP DUP2 ADD SWAP1 PUSH2 0x238 SWAP2 SWAP1 PUSH2 0x2ED JUMP JUMPDEST PUSH2 0x241 JUMPI PUSH1 0x0 DUP1 REVERT JUMPDEST PUSH1 0x0 DUP1 PUSH2 0x24E DUP3 DUP7 PUSH2 0x344 JUMP JUMPDEST PUSH1 0x1 SLOAD PUSH1 0x1 PUSH1 0x1 PUSH1 0xA0 SHL SUB AND PUSH1 0x0 SWAP1 DUP2 MSTORE PUSH1 0x3 PUSH1 0x20 MSTORE PUSH1 0x40 DUP2 KECCAK256 DUP1 SLOAD SWAP3 SWAP4 POP DUP5 SWAP3 SWAP1 SWAP2 SWAP1 PUSH2 0x27D SWAP1 DUP5 SWAP1 PUSH2 0x32C JUMP JUMPDEST SWAP1 SWAP2 SSTORE POP POP PUSH1 0x1 PUSH1 0x1 PUSH1 0xA0 SHL SUB DUP7 AND PUSH1 0x0 SWAP1 DUP2 MSTORE PUSH1 0x3 PUSH1 0x20 MSTORE PUSH1 0x40 DUP2 KECCAK256 DUP1 SLOAD DUP4 SWAP3 SWAP1 PUSH2 0x2AA SWAP1 DUP5 SWAP1 PUSH2 0x32C JUMP JUMPDEST SWAP1 SWAP2 SSTORE POP POP POP POP POP POP POP POP JUMP JUMPDEST PUSH1 0x0 DUP1 PUSH1 0x40 DUP4 DUP6 SUB SLT ISZERO PUSH2 0x2C9 JUMPI DUP2 DUP3 REVERT JUMPDEST DUP3 CALLDATALOAD PUSH1 0x1 PUSH1 0x1 PUSH1 0xA0 SHL SUB DUP2 AND DUP2 EQ PUSH2 0x2DF JUMPI DUP3 DUP4 REVERT JUMPDEST SWAP5 PUSH1 0x20 SWAP4 SWAP1 SWAP4 ADD CALLDATALOAD SWAP4 POP POP POP JUMP JUMPDEST PUSH1 0x0 PUSH1 0x20 DUP3 DUP5 SUB SLT ISZERO PUSH2 0x2FE JUMPI DUP1 DUP2 REVERT JUMPDEST DUP2 MLOAD DUP1 ISZERO ISZERO DUP2 EQ PUSH2 0x30D JUMPI DUP2 DUP3 REVERT JUMPDEST SWAP4 SWAP3 POP POP POP JUMP JUMPDEST PUSH1 0x0 PUSH1 0x20 DUP3 DUP5 SUB SLT ISZERO PUSH2 0x325 JUMPI DUP1 DUP2 REVERT JUMPDEST POP CALLDATALOAD SWAP2 SWAP1 POP JUMP JUMPDEST PUSH1 0x0 DUP3 NOT DUP3 GT ISZERO PUSH2 0x33F JUMPI PUSH2 0x33F PUSH2 0x35B JUMP JUMPDEST POP ADD SWAP1 JUMP JUMPDEST PUSH1 0x0 DUP3 DUP3 LT ISZERO PUSH2 0x356 JUMPI PUSH2 0x356 PUSH2 0x35B JUMP JUMPDEST POP SUB SWAP1 JUMP JUMPDEST PUSH4 0x4E487B71 PUSH1 0xE0 SHL PUSH1 0x0 MSTORE PUSH1 0x11 PUSH1 0x4 MSTORE PUSH1 0x24 PUSH1 0x0 REVERT INVALID LOG2 PUSH5 0x6970667358 0x22 SLT KECCAK256 PUSH28 0xA042B5246F027B06F334AED763EB6509227A50EBC23C6D418D2DA23A SELFBALANCE EXP 0x21 PUSH5 0x736F6C6343 STOP ADDMOD DIV STOP CALLER ",
  "sha1": "a8c09e97de8d8cf8e4a316c1904a7506e04234cb",
  "source": "// Pagafactura.sol\n// Contrato interpuesto para pago de facturas con cobro automático de IVA\n\npragma solidity >=0.7.0;\n\nimport '../interfaces/IERC20.sol';\n\ncontract Pagafactura {\n\n   address currency; // Moneda en la que aceptamos los pagos (contrato)\n   address hacienda;\n   uint pct;\n\n   // Saldos a pagar para cada una de las direcciones de Ethereum\n   mapping (address => uint256) private saldo;\n\n   event Debug(string, address, address);\n   event Pagado(address orig, address dest, uint256 bruto, uint256 neto, uint256 impuestos);\n   event Cobrado(address dir, uint256 importe);\n   \n   // Necesitamos construir el contrato (instanciar)\n   // Constructor\n\n   constructor(address _tokenaddr, address _hacienda, uint _porcentaje) {\n       require(_porcentaje > 0 && _hacienda != _tokenaddr && _hacienda != address(0) );\n       currency = _tokenaddr;\n       hacienda = _hacienda;\n       pct = _porcentaje;\n   }\n\n   // Para enviar el pago, este contrato tiene que tener permiso\n   function enviaPago(address destino, uint256 cantidad) public {\n       require(cantidad > 0 && destino != address(0));\n\n       address paganinni = msg.sender; // Ojo: que puede ser un contrato\n       uint256 impuesto = calculaImpuesto(cantidad);\n\n       // Tenemos que hacer una transferencia hasta este contrato interpuesto\n       require (iERC20(currency).transferFrom(paganinni, address(this), cantidad));\n\n       // Actualizamos saldos\n       // Se hace de esta manera para evitar un ataque de reentrada\n\n       uint256 para_hacienda = calculaImpuesto(cantidad);\n       uint256 para_destino = cantidad - para_hacienda;\n\n       saldo[hacienda] += para_hacienda;\n       saldo[destino] += para_destino;\n       \n   }\n\n   function recibePago() public returns(bool) {\n       require(msg.sender == tx.origin); // No se puede desde contratos interpuestos\n       uint256 importe = saldo[tx.origin];\n\n       saldo[tx.origin] = 0;\n       bool result = iERC20(currency).transfer(tx.origin, importe);\n\n       emit Cobrado(tx.origin, importe);\n\n       return result;\n   }\n\n   function calculaImpuesto(uint256 bruto) public returns(uint256) {\n      return 0; // Ya te gustaría a ti, ya\n   }\n\n}\n",
  "sourcePath": "contracts/PagaFactura.sol",
  "type": "contract"
}